:020000040800F2
:100000002018002021020008572E00083721000880
:10001000552E0008D10400084B36000800000000EF
:10002000000000000000000000000000890100083E
:100030000B05000800000000CD010008593300083E
:100040003B0200083B0200083B0200083B0200089C
:100050003B0200083B0200083B0200083B0200088C
:100060003B0200083B0200083B020008D5040008E0
:100070003B0200083B0200083B0200083B0200086C
:100080003B0200083B0200083B0200083B0200085C
:100090003B0200083B0200083B0200083B0200084C
:1000A0003B0200083B0200083B0200083B0200083C
:1000B0003B020008FD3300083B0200084521000810
:1000C000392100083B0200083B0200083B020008FF
:1000D0003B0200083B0200083B0200083B0200080C
:1000E0003B0200083B0200083B02000800F002F857
:1000F00000F03AF80AA090E8000C82448344AAF188
:100100000107DA4501D100F02FF8AFF2090EBAE885
:100110000F0013F0010F18BFFB1A43F0010318473B
:100120007046000090460000103A24BF78C878C19D
:10013000FAD8520724BF30C830C144BF04680C60ED
:10014000704700000023002400250026103A28BF35
:1001500078C1FBD8520728BF30C148BF0B60704739
:100160001FB51FBD10B510BD00F0D6F81146FFF742
:10017000F7FF03F0B9FB00F0F4F803B4FFF7F2FF68
:1001800003BC00F0FBF80000224B19680868B0E8D7
:10019000F00F80F30988BFF36F8F4FF0000080F3FA
:1001A00011884EF00D0E70470000000006480068F0
:1001B000006880F3088862B661B6BFF34F8FBFF363
:1001C0006F8F00DF00BF00BF08ED00E0EFF3098094
:1001D000BFF36F8F0F4B1A6820E9F00F106008B55E
:1001E0004FF0500080F31188BFF34F8FBFF36F8F34
:1001F00004F0B6F84FF0000080F31188BDE8084025
:1002000019680868B0E8F00F80F30988BFF36F8FB2
:10021000704700BF5C000020EFF3058070470000CE
:100220000948804709480047FEE7FEE7FEE7FEE78A
:10023000FEE7FEE7FEE7FEE7FEE7FEE704480549C6
:10024000054A064B70470000F9330008ED0000082E
:10025000201200202018002020140020201400204C
:1002600010B5203AC0F00B80B1E81850203AA0E851
:100270001850B1E81850A0E81850BFF4F5AF5FEA85
:10028000027C24BFB1E81850A0E8185044BF18C938
:1002900018C0BDE810405FEA827C24BF51F8043BDF
:1002A00040F8043B08BF7047D20728BF31F8023B33
:1002B00048BF11F8012B28BF20F8023B48BF00F8C7
:1002C000012B70474FF0000200B513469446964646
:1002D000203922BFA0E80C50A0E80C50B1F1200159
:1002E000BFF4F7AF090728BFA0E80C5048BF0CC007
:1002F0005DF804EB890028BF40F8042B08BF704765
:1003000048BF20F8022B11F0804F18BF00F8012BD6
:100310007047704770477047754600F02BF8AE463F
:1003200005006946534620F00700854618B020B501
:10033000FFF784FFBDE820404FF000064FF00007B4
:100340004FF000084FF0000B21F00701AC46ACE87D
:10035000C009ACE8C009ACE8C009ACE8C0098D46EA
:10036000704710B50446AFF300802046BDE810404A
:10037000FFF703BF00487047BC1100200149182057
:10038000ABBEFEE7260002007047000070B50446D1
:1003900000688168C943C90717D1816821F001014C
:1003A000816000F003FD05460AE000BF00F0FEFC9E
:1003B000401B022804D920688068C043C00706D0CB
:1003C00020688068C043C007F0D0002070BDA06ADC
:1003D00040F01000A062E06A40F00100E0620120FD
:1003E00070BD10B50146406A826A12F0500F05D008
:1003F000006A026BBDE8104008461047816A41F46C
:100400000071816201688968C1F3424107290CD1FA
:10041000017B51B9816A21F480718162816AC904CA
:1004200003D4816A41F00101816200F0EFF810BD50
:1004300010B5406A816A41F040018162C16A41F0B1
:100440000401C16200F0E4F810BD10B5406A00F08C
:10045000DEF810BDF8B500260446009600688168F5
:10046000C943C9072DD0816841F001018160164858
:1004700016490068B0FBF1F000E0401E0090002833
:10048000FBD100F093FC054616E000BF00F08EFCA7
:10049000401B022810D920688068C043C0070BD0D9
:1004A000A06A40F01000A062E06A40F00100E06243
:1004B00084F824600120F8BD20688068C043C0072C
:1004C000E4D10020F8BD00005800002040420F0099
:1004D000FEE70000014800F057BA0000EC010020E0
:1004E00030B590F840500124AC40C56B6C60046896
:1004F00063604368102B036803D099600068C26092
:1005000030BD9A600068C16030BD704772B6FEE7CA
:10051000F8B50024009490F824202546012A12D032
:10052000012280F824204A681F23072A0DD206687A
:10053000776B521E02EB820293409F430B689340FD
:100540001F43776319E00220F8BD06680D2A0AD21E
:10055000376BD21F02EB820293409F430B6893409C
:100560001F43376309E0F76A0D3A02EB82029340BA
:100570009F430B6893401F43F7620A68072306688E
:100580000A2A0AD3F7680A3A02EB420293409F43D1
:100590008B6893401F43F76008E0376902EB420223
:1005A00093409F438B6893401F4337610A68102A2A
:1005B00001D0112A20D1124B02689A4217D19368B8
:1005C0001B0219D4936843F400039360096810294F
:1005D00012D10C490C4A0968B1FBF2F101EB81011F
:1005E000490000E0491E00910029FBD104E0816A26
:1005F00041F020018162012480F824502046F8BD9A
:10060000002401405800002040420F00704770470E
:10061000704700002DE9F0414FF0000704003D460F
:100620007ED0A06A002628B9E66284F824602046BD
:1006300000F07EF82046FFF7A9FEA16AC90600D4A3
:1006400020B1A06A40F01000A06269E0A16A21F424
:10065000885141F00201A1626268E169237B0A438B
:1006600047EA43010A43A1684FF48077B94209D0B1
:10067000012907D05FF0000194F814C0BCF1010F0C
:1006800002D00AE03946F7E7F3B1A36A43F020034A
:10069000A362E36A43F00103E3622368D3F804C072
:1006A0002CF4694C4CEA010CC3F804C021688B6837
:1006B000DFF870C003EA0C0313438B60A168B942F2
:1006C0000BD0012909D00CE0DFF85CC0A3690CEB6A
:1006D00043330B4343F40061DFE7218A0D05A5F5A1
:1006E00080152168CB6A23F470032B43CB62216809
:1006F00089680E4B1940914208D1E662A16A21F047
:10070000020141F00101A162BDE8F081A06A20F080
:10071000020040F01000A062E06A40F00100E062D8
:100720000120F1E7FDF7E1FF00E0FFFFFE0E1FFFF4
:1007300070B586B000250646009501950295039593
:100740000068204988423BD11F49886940F4007005
:100750008861886900F400700490886940F00400A2
:100760008861886900F004000490886940F00800FE
:1007700088618869032400F008000490FF20CDE917
:1007800000046946114800F00FFA009469461048C9
:10079000019400F009FA104C0E48C4E900058020CD
:1007A000C4E90250400020618000C4E905052046EC
:1007B000E56100F093F908B1FFF7A8FE34626662C4
:1007C00006B070BD00240140001002400008014046
:1007D000000C014008000240EC0100202DE9F04728
:1007E000894604463B4900683B4F0E1D90468842AF
:1007F00001D0B84207D1306810F4702F03D0012522
:100800002846BDE8F08794F8240001280CD0012088
:1008100084F824002046FFF71DFE05004FF000007D
:1008200004D084F82400EBE70220EAE7A16A40F64E
:100830000162914341F48071A1622168B94218D1EB
:10084000326812F4702F14D0A16A41F48011A162B1
:100850003168490505D5A16A21F4005141F4805160
:10086000A162A16AC9040AD5E16A21F00601E16228
:1008700006E0A26A22F48012A2624968E9E7E06217
:1008800084F82400216A15488862216A1448C862E5
:10089000216A1448086321686FF00200086020682C
:1008A000816841F480718160216843464A464C3139
:1008B000206A00F041F920688168C1F342410729AC
:1008C000816803D041F48011816099E741F4A0016F
:1008D000FAE700000024014000280140E30300087B
:1008E0004B0400083104000810B590F821100024D2
:1008F000022903D00421816301243DE001680A68D4
:1009000022F00E020A6001680A6822F001020A6001
:100910001A4A0168914201D1012121E0174A14329B
:10092000914201D110211BE0144A2832914201D199
:10093000891515E0114A3C32914201D189140FE02A
:100940000E4A5032914202D14FF4803108E00B4AF6
:100950006432914202D14FF4801101E04FF0807176
:10096000064A083A5160012180F82110002180F8E0
:100970002010416B01B18847204610BD080002409D
:1009800090F82100704700002DE9F05FC16B0C6802
:1009900001680B68D0F840C0042202FA0CF2494DFD
:1009A000DFF824A1494E4A4FDFF828B1DFF828E1EB
:1009B00022422CD05A072AD50A68920603D40A6824
:1009C00022F004020A600168A94201D1042219E060
:1009D000514501D1402215E0B14202D14FF480626D
:1009E00010E0B94202D14FF480420BE0594502D1E8
:1009F0004FF4802206E0714502D14FF4800201E0FD
:100A00004FF080622F4908394A60C16A3BE04FF0DD
:100A1000020808FA0CF818EA040F4FF000094FF02A
:100A2000010235D05FEA837832D50B689B0605D486
:100A30000B6823F00A030B6080F821200168A942AB
:100A400001D1022219E0514501D1202215E0B14225
:100A500002D14FF4007210E0B94202D14FF40052BB
:100A60000BE0594502D14FF4003206E0714502D146
:100A70004FF4001201E04FF00072124908394A6049
:100A800080F82090816A00291AD0BDE8F05F0847FD
:100A9000082505FA0CF5254212D01B0710D50B6866
:100AA00023F00E030B6090F84010C36B02FA01F1C3
:100AB0005960826380F8212080F82090016BE2E782
:100AC000BDE8F09F080002401C00024030000240D8
:100AD00044000240580002406C00024030B528B388
:100AE00008C8134914221944B1FBF2F18900C1630B
:100AF00010498163022141771A6843F6F0718A43F5
:100B0000D0E900142143D0E902452C432143046974
:100B10002143446921438469214311431960002121
:100B20004163012242770177084630BD012030BD84
:100B3000F8FFFDBF0000024070B5044690F82000A9
:100B4000002501280CD0012084F8200094F82160B1
:100B50000020012E06D084F820000225284670BD12
:100B6000022070BD022684F82160A0632068066818
:100B700026F0010606602046FFF7B2FCE06A002876
:100B80002068016802D041F00E0106E021F0040166
:100B900001602068016841F00A0101602068016875
:100BA00041F001010160D9E72DE9F84FDFF8B89174
:100BB0000024A9F1040B23460F2709F1040AABF125
:100BC000040EC9E00125A5402A40AA427DD1674E06
:100BD000D1F804C0ACEB0608B44532D014DCBCF14B
:100BE000030F3AD009DCBCF1000F2AD0BCF1010F91
:100BF0001CD0BCF1020F31D11DE0BCF1110F17D098
:100C0000BCF1120F2AD119E0B8F5881F19D006DC03
:100C1000B8F5803F15D0B8F5801F1FD111E0B8F5A9
:100C2000001F0ED0B8F5041F18D10AE0CB6815E0FC
:100C3000CB681B1D12E0CB6808330FE0CB680C3388
:100C40000CE08B682BB1012B4FF0080303D04561FA
:100C500004E0042302E0056100E00023FF2A01D83C
:100C6000064601E000F104064FEA840501D9A5F12A
:100C70002005D6F8008007FA05FC28EA0C0803FADC
:100C800005F548EA0508C6F800804D68ED0062D514
:100C9000374DAE6946F00106AE61AD6924F003063A
:100CA00005F001050095334D06EB050CDCF8085006
:100CB000A607360F07FA06F825EA0805DFF8B88018
:100CC000404503D14FF0000817E044E0DFF8AC8066
:100CD000404502D14FF001080FE0DFF8A480404505
:100CE00002D14FF0020808E0DFF89880404502D1B9
:100CF0004FF0030801E04FF0040808FA06F848EA4C
:100D00000508CCF808804D68D9F80060ED024D4622
:100D100001D5164300E096432E604D68DAF8006076
:100D2000AD02554601D5164300E096432E604D684E
:100D3000DBF80060AD035D4601D5164300E0964345
:100D40002E604D68DEF80060ED03754601D5164350
:100D500000E096432E60641C0D682A46E5407FF44F
:100D600031AFBDE8F88F0000080401400000111009
:100D7000001002400000014000080140000C01404A
:100D800000100140001401408068084000D001209C
:100D90007047C26821EA02030A4043EA0241016146
:100DA00070470AB1016170470904FBE70148806898
:100DB000704700004C00002070470000012901D05E
:100DC000FFF7A4BB08230622014900F0B8BA0000CF
:100DD000310000202DE9F041016804464A694E685F
:100DE00090F83E000025D743FA050BD4F243D20514
:100DF00008D46FF4807201254A6121680A6842F4C0
:100E000000420A60B90508D4F143C90505D4226837
:100E10006FF4007145F002055161790525D4F14365
:100E2000C90522D4638D94F83D10226B202808D187
:100E30003BB9212910D029290ED0282901D1212AF6
:100E40000AD022686FF48061516145F004051028D2
:100E500006D0402804D008E0204601F07BFD04E0E5
:100E60002068016841F400710160380508D4F0433E
:100E7000C00505D421686FF4006045F0080548619D
:100E8000002D07D0206C284320642046BDE8F041A7
:100E900001F0C4B9BDE8F0812DE9F04702680021F6
:100EA0005368C66A90F83E4090F83D50102C12D01E
:100EB000402C10D0046C002C7DD05469E443A6076C
:100EC0007AD4DE43B60577D4036C03B19169BDE8EB
:100ED000F04701F01BBD976951694FF42A0CC943D3
:100EE0005FEAC1784FF02A4904D066452AD04E45C2
:100EF00028D010E0DE43B6050DD4C16A614501D1AA
:100F0000012103E0C16A494501D10821C162BDE860
:100F1000F04701F061BC0E0716D4DE43B60513D4CA
:100F2000416CC9B21161416B09B1896A29B9816B00
:100F3000002907D0896A002904D00068416841F47B
:100F400000614160BDE8F0878E0706D4DE43B60538
:100F500003D4BDE8F04701F093BBFE435268760727
:100F60004FEA02521DD4002AECDB0A0608D4DA4309
:100F7000520505D4490705D5BDE8F04701F024BB6B
:100F80004907DFD4D9438905DCD4212D05D0402C75
:100F9000D8D1BDE8F04701F065BCBDE8F04701F0ED
:100FA000D1BA002ACEDB4A060BD4DA43520508D464
:100FB000490708D501E00DE00EE0BDE8F04701F07B
:100FC00047BA4907BED4D9438905BBD4BDE8F04729
:100FD00001F0D0B9916970E7E10606D4D9438905DB
:100FE00003D4BDE8F04701F0FDBC2821212D27D016
:100FF000292D25D0650655D4DD436D0552D46407EF
:1010000052D590F83D30448D002C9BD01269446A33
:101010002270426A521C4262428D521E4285428DAB
:10102000002A8FD12A2B8DD10268536823F4806364
:1010300053602222026380F83D1000F077F981E7C7
:10104000250623D4DD436D0520D4640720D590F810
:101050003D30448D002CF2D0446A24781461426AF9
:10106000521C4262428D521E4285428D002AE6D1B8
:10107000292BE4D10268536823F480635360212252
:10108000026380F83D1000F059F95BE76107D6D4A0
:10109000D9438905D3D4418D0029D0D0416A09783C
:1010A00011610AE06107CAD4D9438905C7D4418DCB
:1010B0000029C4D01169426A1170416A491C416219
:1010C000418D491E41853DE790F83D10202901D012
:1010D00002207047282180F83D1001680A68D20775
:1010E00003D10A6842F001020A6001680A6842F40A
:1010F00080620A600068416841F4407141600020EC
:101100007047FFF7E1BF000070B5040025D094F8E8
:101110003D00002520B984F83C50204600F0BEF880
:10112000242084F83D002068016821F0010101605D
:101130002068016841F4004101602068016821F4E1
:101140000041016000F02CFB4D4A6168914201D8DA
:101150004C4900E04C49884201D2012070BD4B4906
:101160002368B0FBF1F15E6826F03F060E435E6037
:101170006368934206D94FF4967359434FF47A73D8
:10118000B1FBF3F12368491C1E6A26F03F06314388
:1011900019626168914210D84900401EB0FBF1F21B
:1011A000521CC2F30B02042A01D2042022E0B0FB3D
:1011B000F1F0401CC0F30B001CE0A268F2B301EB9D
:1011C000C10303EB0116431EB3FBF6F35B1C43F4B0
:1011D00080431B0549D092B301EBC10202EB011120
:1011E000401EB0FBF1F0401CC0F30B0040F4804007
:1011F00040F400402168CA694CF6FF739A431043DB
:10120000C861D4E9071001432068026822F0C002D7
:1012100011430160D4E9030101432068826848F268
:10122000FF339A4311438160D4E9050108432168E3
:10123000CA6822F0FF021043C86001E00EE016E029
:101240002068016841F0010101602564202084F8D4
:101250003D00256384F83E50002070BD01EB41063F
:10126000431EB3FBF6F35B1CB3E70120C2E701EBBF
:101270004101401EB0FBF1F0401CC0F30B00B7E78A
:10128000A086010080841E0000093D0040420F003E
:10129000FFF71ABF704770477047704710B586B0A8
:1012A0000021009101910291039100681B4988423D
:1012B00032D11B4CA06940F00800A061A0696946CA
:1012C00000F0080004904FF440700090122001904C
:1012D000032003901348FFF767FC1348416841F06F
:1012E000E06141F002014160E06940F40010E0611A
:1012F000E069002200F40010049005211F2000F096
:10130000F1F81F2000F0E0F800220521202000F075
:10131000E9F8202000F0D8F806B010BD00540040D5
:1013200000100240000C014000000140024801781A
:10133000491C01707047000030000020704738B52C
:1013400090F83D502824AC4331D161B15AB190F8A6
:101350003C40012C2BD0012480F83C4004682568D7
:10136000ED0702D005E0012038BD256845F00105F4
:1013700025600468256825F4006525602A2480F826
:101380003D40202480F83E400024046441624285B0
:10139000418D0185C36201684A698A69009280F8BB
:1013A0003C40486840F4E0604860204638BD022078
:1013B00038BD00000248816802781144816070479E
:1013C0004C000020074810B5016841F01001016091
:1013D000032000F0A7F80F2000F006F800F050F806
:1013E000002010BD0020024030B505461F4887B0E0
:1013F000C16941F00201C161C06906A900F00200A3
:10140000009001A800F0ACF90498B0B100F0C8F960
:1014100040001749174AB0FBF1F11748491E026016
:10142000416040F2E7320021C0E90321816081611F
:1014300000F0B2FB040003D015E000F0B1F9E8E7DA
:101440000D4800F0E9FB04000DD11D2000F03CF830
:10145000102D07D2002229461D2000F043F807482E
:10146000056000E0012407B0204630BD00100240B6
:1014700040420F000004004084040020500000207F
:101480000F4808B5816941F001018161816901F06E
:1014900001010091C16941F08051C161C069002220
:1014A00000F0805000900F21901E00F01BF80548BE
:1014B000416821F0E06141F00071416008BD000029
:1014C0000010024000000140002809DB00F01F026C
:1014D000012191404009800000F1E020C0F8001196
:1014E00070470000F0B40E4B1B680C46C3F3022398
:1014F000C3F10705042D00D90425191D072901D2C0
:10150000002300E0DB1E012606FA05F1491E2140FA
:1015100099409E40761E16403143F0BC02F0A8B8B8
:101520000CED00E0064900F0070208684FF6FF03E3
:10153000184040EA0220034A104308607047000048
:101540000CED00E00000FA052DE9F84305460078AF
:10155000354CC00754D0E0690026C00008D4E069CB
:1015600040F08050E061E069012600F0805000907A
:101570002E480168C90512D40168804641F4807183
:101580000160FFF713FC074605E000BFFFF70EFC04
:10159000C01B642823D8D8F80000C005F6D5206AFF
:1015A00010F4407021D0A98801F4407181421CD010
:1015B000206A1F49012220F440700A6000220A605C
:1015C0002062C00711D0FFF7F1FB074641F28838CF
:1015D00008E000BFFFF7EAFBC11B414502D9032029
:1015E000BDE8F883206A8007F4D5206A696820F492
:1015F0004070084320621EB1E06920F08050E06135
:101600002878800705D56068A96820F44040084321
:1016100060602878C00605D56068E96820F480001D
:10162000084360600020DBE70010024000700040CB
:10163000400442422DE9F0470F46050061D0434E79
:10164000306800F00700B84209D2306820F0070087
:1016500038433060306800F00700B84251D1286844
:101660003B4C810712D5400703D5606840F4E06029
:1016700060602878000703D5606840F460506060BF
:101680006068A96820F0F000084360602878C0070F
:1016900028D06868012810D02168022810D0890756
:1016A00000292EDA616821F0030101436160FFF730
:1016B0007DFB804641F288390DE021688903EFE720
:1016C0008901EDE7FFF772FBA0EB0801494502D95C
:1016D0000320BDE8F0876068696800F00C00B0EB9B
:1016E000810FEFD1306800F00700B8420BD93068A5
:1016F00020F0070038433060306800F00700B8423F
:1017000001D00120E5E72878400705D56068E96841
:1017100020F4E060084360602878000706D5606820
:10172000296920F4605040EAC100606000F048F888
:101730006168084AC1F30311515CC840064908605A
:1017400006480068FFF750FE0020C2E70020024074
:1017500000100240464700085800002050000020BA
:101760000F2202600C4A536803F00303436053687E
:1017700003F0F0038360536803F4E063C3605268CE
:101780004FF4E06303EAD20202610448006800F00B
:10179000070008607047000000100240002002406F
:1017A0000448054900684968044AC1F30221515CB4
:1017B000C8407047580000200010024056470008FB
:1017C0000E4A51680E4801F00C03042B11D0082B6F
:1017D0000FD10C48C1F38343C903C05C0AD55168DB
:1017E000084AC1F34041921E515C054A5043B0FB88
:1017F000F1F0704704494843704700000010024070
:1018000000127A003647000800093D002DE9F84F24
:10181000040070D02078C04DC00749D06868C0F37C
:101820008100012807D06868C0F38100022809D12F
:101830006868C00306D52868800339D56068002829
:10184000E7D035E06068B0F5803F0BD010B1B0F55F
:10185000A02F11D0286820F480302860286820F458
:10186000802002E0286840F480302860606890B1F1
:10187000FFF79CFA06460AE0286840F480202860BA
:10188000F0E700BFFFF792FA801B642873D828683E
:101890008003F7D50CE0FFF789FA064605E000BFA4
:1018A000FFF784FA801B6428F0D828688003F7D4F7
:1018B00020789A4E80074FF001094FF0000839D583
:1018C000686810F00C0F07D06868C0F38100022828
:1018D00009D16868C00306D42868800714D5206938
:1018E000012808D110E02069B0B1C6F80090FFF7D8
:1018F0005DFA074605E00AE1FFF758FAC01B022827
:10190000C4D828688007F7D52868616920F0F800F6
:1019100040EAC10028600DE0C6F80080FFF746FAF3
:10192000074604E0FFF742FAC01B022823D82868C4
:101930008007F7D4207800072CD57948A169D9B160
:10194000C0F80090FFF732FA074604E0FFF72EFADE
:10195000C01B02280FD8686A8007F7D571484FF47A
:10196000FA510068B0FBF1F0009000BF0098411EF2
:101970000091FAD20EE080E0C0F80080FFF716FA7E
:10198000074604E0FFF712FAC01B022875D8686A00
:101990008007F7D42078400760D5E8690027C000A9
:1019A00008D4E86940F08050E861E869012700F058
:1019B000805000905C480168C90513D401688346D3
:1019C00041F480710160FFF7F1F9824606E000BF43
:1019D000FFF7ECF9A0EB0A0064284ED8DBF8000012
:1019E000C005F5D5E06801280AD008B1052813D054
:1019F000286A20F001002862286A20F0040002E032
:101A0000286A40F001002862E06841F2883B98B102
:101A1000FFF7CCF982460BE0286A40F00400286208
:101A2000EEE700BFFFF7C2F9A0EB0A0159455AD80B
:101A3000286A8007F6D50CE0FFF7B8F9824605E082
:101A4000FFF7B4F9A0EB0A0159454CD8286A800782
:101A5000F6D41FB1E86920F08050E861E06988B3EE
:101A60006968C1F38101022944D00228C6F8608068
:101A700004D0FFF79BF9044638E034E0FFF796F90D
:101A8000074604E0FFF792F9C01B02282BD828680C
:101A90008001F7D4206AB0F5803F05D16868A1685D
:101AA00020F4003008436860D4E9080108436968FD
:101AB00021F4741108436860C6F86090FFF776F966
:101AC000044606E025E000BFFFF770F9001B02287E
:101AD00009D828688001F7D51BE000BFFFF766F939
:101AE000001B022802D90320BDE8F88F2868800176
:101AF000F4D40EE00128F7D06868226A00F480313F
:101B0000914204D1616A00F47010884201D0012032
:101B1000EAE70020E8E7000000100240000042422F
:101B20008004424258000020007000407047704717
:101B300070B590F83C20012A26D0012480F83C4062
:101B4000022280F83D2003685A689D6822F07006E2
:101B50000A6832435A600D4B02689A4208D0B2F1CB
:101B6000804F05D00A4B9A4202D00A4B9A4204D1C8
:101B7000496825F080031943916080F83D400021B9
:101B800080F83C10084670BD022070BD002C01405A
:101B9000000400400008004010B5040003D094F891
:101BA0003D0010B107E0012010BD002084F83C008A
:101BB000204600F01FF8022084F83D00211D206817
:101BC00001F022FC012084F8460084F83E0084F8ED
:101BD0003F0084F8400084F8410084F8420084F813
:101BE000430084F8440084F8450084F83D00002058
:101BF00010BD000008B50068B0F1804F08D105485D
:101C0000C16941F00101C161C06900F001000090AB
:101C100008BD00000010024090F83D10012901D0DD
:101C200001207047022180F83D100168CA6842F027
:101C30000102CA6000680B49884208D0B0F1804FA9
:101C400005D00949884202D00849884204D18168F8
:101C500001F00701062903D0016841F0010101608C
:101C600000207047002C01400004004000080040A4
:101C700070B5044690F83C000025012817D00126D5
:101C800084F83C60022084F83D002068826822F0DD
:101C9000770222F47F4282600868502838D00DDC39
:101CA00020284FD005DC90B3102811D14AE0022043
:101CB00070BD302846D040280AD13BE060282FD0A4
:101CC00070280DD0B0F5805F03D0B0F5005F12D062
:101CD000012584F83D60002084F83C00284670BD52
:101CE000CB68D1E90121206801F0D7FB2068816829
:101CF00041F0770109E0CB68D1E90121206801F0CA
:101D0000CCFB2068816841F480418160E1E719E003
:101D1000CA684968206801F075FC5021206806E017
:101D2000CA684968206801F07EFC6021206801F0E3
:101D3000BEFBCEE7CA684968206801F063FC402119
:101D40002068F4E7226801461046F0E770472DE965
:101D5000F04104460068C66805694FF00007A9070E
:101D600013D5B10711D5F91E016101202077206834
:101D700080698007204602D0FFF7E8FF04E000F00A
:101D8000D7F8204600F07CF92777680716D570074A
:101D900014D521686FF004000861022020772068C4
:101DA000806910F4407F204602D0FFF7CFFF04E0A7
:101DB00000F0BEF8204600F063F92777280715D514
:101DC000300713D521686FF00800086104202077E0
:101DD0002068C0698007204602D0FFF7B7FF04E003
:101DE00000F0A6F8204600F04BF92777E80616D554
:101DF000F00614D521686FF01000086108202077E4
:101E00002068C06910F4407F204602D0FFF79EFF93
:101E100004E000F08DF8204600F032F92777E8075B
:101E200008D0F00706D021686FF001000861204655
:101E300000F076F9280608D5300606D521686FF03F
:101E4000800008612046FFF771FE680608D570061D
:101E500006D521686FF040000861204600F06AF95D
:101E6000A8060AD5B00608D521686FF020000861E1
:101E70002046BDE8F041FFF75ABEBDE8F081000002
:101E800030B585B000210091019102910391006865
:101E900022490224224DB0F1804F14D0214A9042B1
:101EA0000FD1886940F0080088618869694600F0B0
:101EB00008000490C020CDE9000428460394FEF7F2
:101EC00073FE05B030BD886940F004008861886900
:101ED00000F004000490886940F008008861886977
:101EE000694600F0080004904FF40040CDE900047A
:101EF0000D480394FEF758FE0820CDE9000469461A
:101F000028460394FEF750FE0848416821F44071CA
:101F100041F0E06141F480714160D2E7001002407D
:101F2000000C014000080040000801400000014092
:101F3000704770B5044690F83C0000260D46012815
:101F40000FD0012084F83C006AB1042A1DD0082A71
:101F50002FD00C2A3FD00126002084F83C003046C8
:101F600070BD022070BD206801F0AAFA2068816966
:101F700041F0080181612068816921F004018161DB
:101F8000206881692A69114311E0206801F0C0FAD4
:101F90002068816941F4006181612068816921F4D0
:101FA00080618161206881692A6941EA0221816139
:101FB000D2E7206801F0D8FA2068C16941F0080131
:101FC000C1612068C16921F00401C1612068C16953
:101FD0002A69114311E0206801F0F2FA2068C16912
:101FE00041F40061C1612068C16921F48061C1616F
:101FF0002068C1692A6941EA0221C161ACE710B5D4
:10200000040003D094F83D0010B107E0012010BD9A
:10201000002084F83C00204600F01EF8022084F8DE
:102020003D00211D206801F0EFF9012084F84600F1
:1020300084F83E0084F83F0084F8400084F84100B2
:1020400084F8420084F8430084F8440084F8450092
:1020500084F83D00002010BD08B50068064988429C
:1020600008D10648C16941F00401C161C06900F0AE
:102070000400009008BD000000080040001002406D
:102080007047000010B50446022249B104290ED061
:10209000082913D094F84100012816D0012010BD62
:1020A00094F83E000128F9D184F83E200FE094F81E
:1020B0003F000128F2D184F83F2008E094F8400066
:1020C0000128EBD184F8402001E084F8412001226E
:1020D000206801F0D5F90F492068884203D1426C8D
:1020E00042F4004242642068884208D0B0F1804F38
:1020F00005D00949884202D00849884204D1816844
:1021000001F00701062903D0016841F001010160D7
:10211000002010BD002C01400004004000080040D9
:1021200000680349884201D1FFF744B970470000B5
:10213000000400407047FEE70148FEF74BBE000078
:10214000F40000200148FEF7A7BE0000F4000020C4
:1021500038B5406A002190F83D202B4B46F2A81478
:102160001B68B3FBF4F3C3EBC30303EB83030093DC
:102170003BB15B1E009303681B689B0505D5009B64
:10218000F6E7036C43F020030364436B03B19962E9
:10219000836B03B1996203681C6824F480641C603B
:1021A0004185436B03B15963836B03B15963036882
:1021B0001C6824F001041C6090F83D402023602C32
:1021C0000BD0282434EA02020FD080F83D3080F88A
:1021D0003E1000BFFEF795FF38BD80F83D3080F817
:1021E0003E100164FEF7E8FD38BD0268136843F055
:1021F000010313600268136843F480631360016392
:1022000080F83D40E6E70000580000200068416982
:10221000C943090601D400210161704770B5044625
:1022200090F83D0094F83E10102901D0402906D1C5
:10223000222804D121680A6822F400620A60282159
:1022400031EA00024FF000054FF0200626D0216849
:102250004968090505D4602803D084F83D6084F8F6
:102260003E50256320684168090537D5416821F44F
:1022700000614160606B90F821203C49012A11D037
:102280004163606BFEF730FB38B32068016821F0D2
:102290000101016084F83D60606B1CE0256384F8F7
:1022A0003D10DFE7A06B4163A06BFEF71DFBA0B103
:1022B00020684169C943490605D40069616A08700C
:1022C000606A401C60622068016821F001010160C1
:1022D00084F83D60A06B416B884710E094F83D1096
:1022E000602910D04169C943490605D40069616A73
:1022F0000870606A401C60622046FEF702FF206C96
:10230000C1071CD115E084F83D6025644169C943CB
:10231000490605D40069616A0870606A401C606201
:102320002068016821F0010101602046FEF744FDAC
:10233000E5E7810703D4410701D4000704D52068ED
:10234000416821F4E061416094F83D00216C490747
:102350000BD5282809D10648E062256384F83D6042
:1023600084F83E502046FEF793FF70BD51210008CF
:102370000000FFFF10B5C26A438D0168042B06D030
:10238000438D032B08D0438D022B1DD012E04A68E9
:1023900022F480624A600CE04B6823F480634B6057
:1023A000042A06D0022A04D001680A6822F4806256
:1023B0000A6001680969426A1170416A491C4162F8
:1023C000418D491E418510BD012A34D0102A32D0DA
:1023D000042A34D0022A32D00B6843F400730B6015
:1023E00001680969436A1970416A491C4162438D59
:1023F0005B1E438503681B690B70416A491C41627F
:10240000418D491E418501684B6823F440734B6040
:10241000202180F83D1090F83E300021402B80F8BC
:102420003E1010D0082A02D0202A00D012210163C9
:10243000FEF730FF10BD0B6823F48063CFE70B6815
:1024400043F48063CBE70163FEF726FF10BD000075
:1024500038B590F83D10222910D1C36A418D032967
:102460000DD901680969426A1170416A491C4162CB
:10247000418D491E4185418D032906D038BDC26A70
:10248000022A02D0012906D029B10068416821F44E
:102490008061416038BD2A4A46F2A81400211268C2
:1024A000B2FBF4F202EB8202009202682024009D4B
:1024B0006D1E009526D01568AD05F8D4156825F475
:1024C000806515600268556825F4E065556002680E
:1024D0001269456A2A70426A521C4262428D521E3B
:1024E000428580F83D4090F83E2080F83E10402A1A
:1024F00021D0082B02D0202B00D012210163FEF73F
:10250000C9FE38BD036C43F020030364536823F411
:10251000E063536002681269436A1A70426A521C8F
:102520004262428D521E428580F83D4080F83E1046
:10253000FEF7E7FD38BD0163FEF7AEFE38BD0000D3
:102540005800002010B5C26A90F83D1021290BD127
:10255000418D51B1416A026809781161416A491C93
:102560004162418D491E418510BD20230021082A6A
:1025700013D0202A11D012F5803F0ED00268546883
:1025800024F4E06454601122026380F83E1080F865
:102590003D3000BFFEF77FFE10BD0268546824F492
:1025A000E06454600268146844F4007414600163C9
:1025B00080F83D3090F83E2080F83E10402AE9D166
:1025C000FEF76BFE10BD000010B590F83D1090F8BE
:1025D0003E30C26A048DB4B1212903D0402B11D101
:1025E00022290FD1418DE1B390F83E10402942D00D
:1025F000416A026809781161416A491C4162418D52
:10260000491E418510BD2129E8D120230021082A37
:1026100013D0202A11D012F5803F0ED002685468E2
:1026200024F4E06454601122026380F83E1080F8C4
:102630003D3000BFFEF72FFE10BD0268546824F441
:10264000E06454600268146844F400741460016328
:1026500080F83D3090F83E2080F83E10402AE9D1C5
:1026600000E002E0FEF719FE10BD0068416821F4A9
:102670008061416010BDBDE8104000F0F3B800007B
:1026800078B590F83E50C26A046B90F83D60002324
:102690000168222E73D1066D0EB9402D6FD0056DE5
:1026A0001DB90569B5F5404F1BD0458D95B3468DD5
:1026B000484D012E20D0448D022C4DD00C6844F49E
:1026C00080640C6001684C68240579D5AA4273D0F7
:1026D000012A71D0082A6FD0102A6DD0202A6BD021
:1026E0006EE04A698A6900920A6842F480720A6060
:1026F000016D491C016578BDAA4214D10A6822F413
:1027000080620A6001684A68120504D50A6822F4EA
:10271000806217E0FFE74A698A6900920A6842F41A
:1027200000720A6050E0082A10D0202A0ED0122C25
:102730000AD0042A03D0022A01D0102AE6D10A685E
:1027400042F480620A603BE0012ADFD00A6822F48A
:1027500080620A600168DEE7042A11D0022A0FD0E5
:10276000102A0DD00C6844F400640C6001684C69B8
:102770008C6900940C6824F480640C6008E025E007
:102780000C6844F480640C6001684C6989690091AC
:1027900001684C68240517D5AA4207D0012A05D044
:1027A000082A03D0102A01D0202A0DD14A6842F409
:1027B00080524A6008E0FFE74A6842F480524A606B
:1027C00001684A6989690091036578BD486988692B
:1027D000009078BD0000FFFF90F83E10402910D017
:1027E0000169B1F5804F19D0016DA9B3016D0129BF
:1027F00010D1416C5FF0F10201F4407142EAD11155
:1028000006E0016D0029416C05D0C9B241F001011B
:1028100000680161704701F0FE01F9E790F83D1092
:102820002129416C09D0C9B241F00101026811614E
:10283000416B29B1896A49B902E001F0FE01F5E76F
:10284000816B0029E6D0896A0029E3D000684168DD
:1028500041F4006141607047FFE7416CF02201F4F0
:102860004071CBE710B590F83D10026D4AB1026D92
:10287000012A14D0026D022A16D0BDE81040FFF7DD
:10288000C5BCC16C0129816C02D0C1F3072108E0ED
:102890000268C9B21161016D891C016510BD816CAE
:1028A000C9B20268116123E022291CD0428D0AB10D
:1028B000212920D0428D002AF0D12129EED10168B2
:1028C0004A6822F4E0624A6001680A6842F40072D1
:1028D0000A6000210163202280F83D2080F83E102C
:1028E000FEF7DBFC10BD01680A6842F480720A60E2
:1028F000016D491CD1E7416A026809781161416A9A
:10290000491C4162418D491E418510BD38B50C46B8
:1029100090F83D2000212825954302680B4605D0FC
:1029200051699169009180F83C3038BD556825F4B3
:1029300080655560E243540700D50121120601D598
:10294000828900E0028B80F83C3092B2FEF736FAC2
:1029500038BD00002DE9F04190F83D300446C26AD0
:10296000002120261E4F00686FF48065082A01D0E0
:10297000202A01D1282B04D0212B17D04561BDE896
:10298000F081E762426822F4E062426020684561BB
:102990002068026822F480620260216384F83D604E
:1029A00084F83E102046FEF773FCE8E7E762212238
:1029B000226384F83D6084F83E10416821F4E061B0
:1029C0004160206845612068016821F480610160F0
:1029D0002046FFF71BFC2046FEF7B0FCCFE70000C7
:1029E0000000FFFFF8B590F83D60044600684168BC
:1029F00021F4E0614160206800254169009101688F
:102A000041F0010101602068016821F480610160EA
:102A100020684168090520D5474F222E48D02A2E2C
:102A200046D0616B096849686185618D19B1216C77
:102A300041F004012164416821F400614160606B50
:102A4000FDF79EFF012808D0606B4763606BFDF7C0
:102A50004BFF10B1606B416B8847608D08B32068F5
:102A60004169C943490708D40069616A0870606A0E
:102A7000401C6062608D401E608520684169C943CA
:102A8000490608D40069616A0870606A401C606287
:102A9000608D401E6085608D18B1206C40F0040090
:102AA0002064206C00B32046BDE8F840FFF7B6BBB9
:102AB000A16B096849686185618D19B1216C41F08C
:102AC00004012164416821F400614160A06BFDF7BD
:102AD00057FF0128C1D0A06B4763A06BFDF704FF2F
:102AE0000028BAD0A06BB6E72A2E06D1256328208D
:102AF00084F83D002046FEF719FC94F83D10202094
:102B000028290DD0216B222901D0222E07D125633F
:102B100084F83D0084F83E502046FEF707FCF8BDDF
:102B20000649E162256384F83D0084F83E50204662
:102B3000FEF7AEFBF8BD0000512100080000FFFFCA
:102B4000FEB500243E48009401943C490294016083
:102B500089158160047304750A2505614FF46021AD
:102B60004460C161FDF756FD08B172B6FEE701266B
:102B7000CDE900460724694631480294FDF7C8FCB8
:102B800008B172B6FEE70096022669462C48019607
:102B9000FDF7BEFC08B172B6FEE700960326694653
:102BA00027480196FDF7B4FC08B172B6FEE700961F
:102BB0000426694622480196FDF7AAFC08B172B6C0
:102BC000FEE70096052669461D480196FDF7A0FC24
:102BD00008B172B6FEE700960626694618480196C7
:102BE000FDF796FC08B172B6FEE7CDE900646946D0
:102BF0001348FDF78DFC08B172B6FEE70094082477
:102C000069460F480194FDF783FC08B172B6FEE7F0
:102C10000094092469460A480194FDF779FC08B13B
:102C200072B6FEE769460648CDE90045FDF770FC3F
:102C3000002801D072B6FEE7FEBD0000002401406E
:102C4000C40000202DE9F04786B0002433480094EA
:102C5000019402940394816941F0100181618169BA
:102C600001F010010491816941F0040181618169E1
:102C700001F004010491816941F0080181618069DA
:102C8000DFF89C8000F008004FF40055049000220B
:102C900029464046FEF785F8DFF888904FF47447E0
:102CA000002239464846FEF77CF8DFF87CA0002277
:102CB0004FF4F8515046FEF774F8009502260125AE
:102CC0000396CDE9015469464046FDF76DFF40F695
:102CD00004008DE8310069464846FDF765FF00971E
:102CE0000396CDE9015469464846FDF75DFF4FF470
:102CF000E060CDE90005CDE9024669465046FDF7A2
:102D000053FF4FF4C0508DE861006946504603966A
:102D1000FDF74AFF06B0BDE8F08700000010024052
:102D200000100140000C01400008014010B58EB0B9
:102D300000240794089409940A940B941C21684673
:102D40000C94FDF7BFFA22484FF08041016040210A
:102D5000C0E901144FF4FA71C0E903148461FEF76D
:102D60001BFF08B172B6FEE74FF48050079007A929
:102D70001748FEF77DFF08B172B6FEE71448FFF76B
:102D80003EF908B172B6FEE70B940BA910480C94FB
:102D9000FEF7CEFE08B172B6FEE76020CDE9000472
:102DA0000294002269460A480494FFF7C2F808B169
:102DB00072B6FEE7042269460548FFF7BAF808B183
:102DC00072B6FEE70248FFF75BF80EB010BD0000D8
:102DD0004801002010B58AB0002407941C216846E1
:102DE0000894FDF76FFA1A48184901604021C0E9BC
:102DF00001144FF4FA71C0E903148461FFF7FFF87E
:102E000008B172B6FEE7079407A911480894FEF7C7
:102E10008FFE08B172B6FEE76020CDE9000402948F
:102E2000002269460A480494FFF783F808B172B695
:102E3000FEE7042269460648FFF77BF808B172B640
:102E4000FEE70348FFF71CF80AB010BD0008004079
:102E500090010020FEE7FEE704490A22A1F58A70EE
:102E6000FDF7BCFC012000F0E3FDF5E7D8010020F0
:102E7000084C00BF01F062F82078012805D9C0078E
:102E800003D100F017FD00F0B9FD012000F0D0FDE6
:102E9000F0E700003C0000202DE9F05F5A4C0646A8
:102EA0000122D1022046FDF77CFF012211032046BA
:102EB000FDF777FFA1154F00544D4FF480684FF494
:102EC00000494FF4804A4FF4005B072E74D2DFE8CC
:102ED00006F0040A29435868740000222046FDF7D2
:102EE00060FF01226EE000222046FDF75AFF00221B
:102EF00039462046FDF755FF002241462046FDF7A2
:102F000050FF002249462846FDF74BFF002251465C
:102F10002846FDF746FF002259462846FDF741FFA7
:102F2000012268E000222046FDF73BFF00223946DF
:102F30002046FDF736FF002241462046FDF731FFCF
:102F4000002249462846FDF72CFF0022514628461C
:102F5000FDF727FF012249E000222046FDF721FF6F
:102F6000002239462046FDF71CFF0022414620463C
:102F7000FDF717FF002249462846FDF712FF012200
:102F80002FE000222046FDF70CFF002239462046A4
:102F9000FDF707FF002241462046FDF702FF012210
:102FA0001AE000222046FDF7FCFE002239462046AA
:102FB000FDF7F7FE01220AE024E001222046FDF79A
:102FC000F0FE002239462046FDF7EBFE0022414686
:102FD0002046FDF7E6FE002249462846FDF7E1FEC1
:102FE000002251462846FDF7DCFE002259462846BD
:102FF000FDF7D7FE00222846BDE8F05F4FF4805170
:10300000FDF7CFBEBDE8F09F00080140000C014075
:103010002DE9F05FCE4C80460122D1022046FDF71B
:10302000C0FE012211032046FDF7BBFEA1154E0094
:103030008F00C84D4FF400494FF4804A4FF4005BB5
:10304000B8F14C0F79D03BDCB8F1050F76D007DC36
:10305000B8F1050F73D2DFE808F0454B51757D00DC
:10306000B8F1080F6CD00BDCB8F1060F69D0B8F1DD
:10307000070F64D100222046FDF793FE00220FE1E6
:10308000B8F1090F76D0B8F1200F58D100222046B0
:10309000FDF787FE002231462046FDF782FE002222
:1030A00039462046FDF77DFE002249462846FDF7B9
:1030B00078FE002251462846FDF773FE00225AE0B2
:1030C000A8F16108B8F1150F39D2DFE808F08D9842
:1030D0009EA0BACAE4FD383838383838383838FB5A
:1030E00038FAF90001222046FDF75BFE002280E05D
:1030F00000222046FDF755FE002230E00022204647
:10310000FDF74FFE012231462046FDF74AFE01221F
:1031100039462046FDF745FE012249462846FDF77F
:1031200040FE002251462846FDF73BFE012259464B
:103130002846FDF736FE012222E0F6E027E004E112
:1031400045E02FE0002245E039462046FDF729FE04
:103150000122AFE001222046FDF723FE0122314685
:103160002046FDF71EFE002239462046FDF719FED7
:1031700000225BE02DE059462846FDF712FE0022B2
:103180002846BDE8F05F4FF48051FDF70ABE0122EA
:103190002046FDF706FE012231462046FDF701FEDE
:1031A000002209E001222046FDF7FBFD0122314605
:1031B0002046FDF7F6FD012239462046FDF7F1FDD8
:1031C000012249462846FDF7ECFD01225DE001227F
:1031D0000BE001222046FDF7E4FD012231462046A6
:1031E000FDF7DFFD0022AFE700222046FDF7D9FD05
:1031F000012231462046FDF7D4FD0122A4E7012239
:103200002046FDF7CEFD01226EE0002288E000227C
:103210002046FDF7C6FD012231462046FDF7C1FDDF
:10322000012239462046FDF7BCFD012249462846C9
:10323000FDF7B7FD012251462846FDF7B2FD0122F8
:1032400099E701222046FDF7ACFD012231462046D8
:10325000FDF7A7FD012239462046FDF7A2FD012218
:103260000EE001222046FDF79CFD0122314620465A
:10327000FDF797FD012239462046FDF792FD002219
:1032800049462846FDF78DFD002251462846FDF7A8
:1032900088FD00224BE701222046FDF782FD012236
:1032A00031462046FDF77DFD002239462046FDF7D8
:1032B00078FD002249462846FDF773FD012231E7DB
:1032C0000DE02CE020E0FFE701222046FDF769FD3C
:1032D000012231462046FDF764FD012244E7002229
:1032E0002046FDF75EFD002231462046FDF759FDE0
:1032F000012239462046FDF754FD01224946284661
:10330000FDF74FFD0122D5E600222046FDF749FDDD
:10331000012231462046FDF744FD0122C0E601228C
:103320002046FDF73EFD012204E001222046FDF784
:1033300038FD002231462046FDF733FD0122394693
:103340002046FDF72EFD0122AFE6BDE8F09F00000C
:1033500000080140000C014010B5502080F3118896
:10336000BFF34F8FBFF36F8F01F0EAF818B1044934
:103370004FF080500860002080F3118810BD0000DD
:1033800004ED00E030B593B028216846FCF79AFFC1
:1033900014210AA8FCF796FF0025022401200F95AE
:1033A000049000941020059012954FF46010CDE920
:1033B00008501195109507946846FEF727FA08B152
:1033C00072B6FEE70AA90F2081E831004FF4806051
:1033D000CDE90D0502210AA8FEF72CF908B172B655
:1033E000FEE70FA811950F94FEF7AEF8002801D064
:1033F00072B6FEE713B030BD704700000148FEF71B
:10340000A6BC000084040020F0B50268194B1A4CD9
:103410001A4D4FF08047984205D0B84203D0A042E1
:1034200001D0A84203D122F070064A683243984284
:1034300005D0B84203D0A04201D0A84203D122F463
:103440004074CA6822434C6922F080022243026021
:103450008A68C2620A688262984201D1096901637E
:10346000012141610169C90703D0016921F001010E
:103470000161F0BD002C0140000400400008004044
:1034800010B501F01F030121046A99408C430462C6
:10349000016A9A401143016210BD10B5846842EA86
:1034A000032224F47F440A432243826010BD8268D1
:1034B00022F070020A4342F0070181607047000069
:1034C00030B5036A026A22F001020262426884692E
:1034D00024F073050C682C4323F002058B682B4302
:1034E0000A4DA8420BD123F00805CB6822F44072A4
:1034F0002B434D6923F0040315438A692A43426034
:10350000846149684163036230BD0000002C0140C2
:1035100030B5026A036A23F01003036243688469CA
:103520000D6824F4E64444EA05248D6822F0200264
:1035300042EA05120B4DA8420ED1CD6822F080025E
:1035400042EA05124D6923F4406343EA85038D691D
:1035500022F0400243EA8503436084614968816345
:10356000026230BD002C014030B5036A026A22F4C9
:10357000807202624268C46923F4007324F0730508
:103580000C682C438D6843EA05230C4DA8420ED1EC
:10359000CD6823F4006343EA05234D6922F44052C9
:1035A00042EA05128D6923F4806342EA0512426003
:1035B000C4614968C163036230BD0000002C014052
:1035C00030B5046A026A22F4805202624268C3691A
:1035D0000D6823F4E64343EA05238D6824F4005480
:1035E00044EA0534064DA84204D14D6922F48042D4
:1035F00042EA85124260C36149680164046230BDD9
:10360000002C014010B5036A046A24F0010404622E
:10361000846924F0F00444EA021423F00A020A4305
:103620008461026210BD10B5036A046A24F01004BC
:103630000462846923F0A00324F4704444EA023253
:1036400043EA01118261016210BDFEE7064C074E9C
:103650004FF47A7701256089B84200D8757001204F
:1036600000F0E6F9F7E70000D80100203C00002058
:103670000907090E002804DB00F1E02080F800149F
:10368000704700F00F0000F1E02080F8141D704733
:1036900010B5064C01229102E2700548FDF781FB4E
:1036A000FDF784FB6430606210BD00000000002064
:1036B000000C0140F0B57C4D2F8A00267B4C642F16
:1036C00002D30627A762A6612F8A642F04D3EF894D
:1036D000642F01D3052703E0EF89642F02D3042769
:1036E000A762A661EF89642F04D3AF89642F01D349
:1036F000032703E0AF89642F02D30227A762A661E4
:10370000B5F80CC00127BCF1640F06D3B5F808C0AA
:10371000BCF1640F01D3A76205E0B5F808C0BCF1A5
:10372000640F01D3A662A661B5F808C0BCF1640FAE
:1037300007D3B5F806C0BCF1640F02D34FF0FF3CCD
:1037400006E0B5F806C0BCF1640F04D36FF0010CBD
:10375000C4F828C0A661B5F806C0BCF1640F07D351
:10376000B5F804C0BCF1640F02D36FF0020C06E0A0
:10377000B5F804C0BCF1640F04D36FF0030CC4F8B7
:1037800028C0A661B5F804C0BCF1640F07D3B5F832
:1037900002C0BCF1640F02D36FF0040C06E0B5F870
:1037A00002C0BCF1640F04D36FF0050CC4F828C04C
:1037B000A661B5F802C0BCF1640F1CD2B5F808C010
:1037C000BCF1640F17D2B5F810C0BCF1640F12D26F
:1037D000B5F804C0BCF1640F0DD2B5F806C0BCF159
:1037E000640F08D2B5F80CC0BCF1640F03D2ED89A8
:1037F000642D00D2A761A56AE76A6843EF1B02FB4C
:103800000700E5626061002D17DAA269012A0DD078
:103810000028024602DA00BFC2F100021A44E26048
:1038200001DAC0F1000000FB11301DE0002800DAD1
:1038300040421844C4E903061BE002D12361E3605F
:1038400013E012DDA269012A09D00028024601DA3C
:10385000C2F1000202FB1131E16004DA02E0E6602D
:10386000002800DA4042184420612069002800DA6C
:103870002661E068002800DAE66021694FF4FA70FA
:10388000814200DD2061E168814200DDE06008489E
:103890000078012807D1E06800F0DFFB2069BDE86F
:1038A000F04000F0E9BBF0BDD8010020000000208E
:1038B0003D00002010B5FDF779FA0A4CE169401A85
:1038C00064280DD9FDF772FAE061A078FFF7E4FAF9
:1038D000A078401CC0B2A070072801D30120A070BE
:1038E00010BD00000000002096B0FDF76BFDFFF753
:1038F00049FDFFF7A7F93748416941F001014161EE
:103900004069002200F00100159005210B20FDF711
:10391000E9FD0B20FDF7D8FDFFF708FAFFF75AFA8B
:103920002E482D49242201602D4941600021C0E923
:1039300002124FF48042C0E904218161C161016239
:10394000FDF7E2FB08B172B6FEE7FFF7F9F823488E
:1039500000215430FEF796FB204804215430FEF736
:1039600091FB1E4800219C30FEF78CFB1B48042174
:103970009C30FEF787FB012251031A48FDF711FA2C
:103980000020FFF745FB00F089FB1C221649684622
:10399000FCF766FC0021684600F057F8134C12490A
:1039A0001C2260601C3107A8FCF75AFC002107A804
:1039B00000F04BF80C49A0601C2238310EA8FCF72F
:1039C0004FFC00210EA800F040F8E06000F038F84D
:1039D000FEE700000010024000540040F400002008
:1039E000A086010000100140E04600083C000020D5
:1039F0000021842800D0C11C084670470B4800787D
:103A0000052812D2DFE800F003050B0D0F0000F0CF
:103A100045BB8C23052202210A20FFF74BBE00F094
:103A200011BB00F047BB00F04FBB704739000020CE
:103A300010B5002800D1012000F01EFC002010BDB0
:103A400010B500F041FC002010BD30B585B0044633
:103A50000D466169B4F90800002910D0A16971B15F
:103A6000FFF7C6FF6269A1690192029100902B469F
:103A700022692168606800F033FD049010E0FFF7D0
:103A8000B7FF04A901910090208A2B4682B22168D9
:103A9000606800F0EFFC012802D005B0002030BDC6
:103AA000049805B030BD00002DE9F04104460F46F2
:103AB000194EF5683068001D00F010FB48B93068F9
:103AC000012190F82C0001FA00F0316921EA000090
:103AD0003061B4F1FF3F07D137B13068BDE8F04144
:103AE000011D0E4800F041BB2C4430684460AC42DC
:103AF00006D23068011DB06BBDE8F04100F01ABB82
:103B00003068011D706B00F015FBB06A844200D272
:103B1000B462BDE8F08100005C000020A805002030
:103B200070B5044600F02EFB1C4DA868401CA86030
:103B3000286810B1686938B10CE02C60A8680128C9
:103B400008D100F0EDF805E02868E16AC06A884213
:103B500000D82C60686A401C6862E06A01212A690A
:103B60008140114329610E4900EB800001EB800088
:103B7000211D00F0FAFA00F025FB686900280CD03E
:103B80002868E16AC06A884207D206494FF080502F
:103B90000860BFF34F8FBFF36F8F70BD5C000020D4
:103BA000CC04002004ED00E070B50D4C60680028E6
:103BB00015D00C4E00F0E6FAF068C568281D00F03C
:103BC0008DFAA068401EA0606068401E606000F032
:103BD000F9FA284600F008F860680028EAD170BDBC
:103BE0005C0000209405002010B5044694F85110A4
:103BF00000290BD0012911D0022914D0502080F3C4
:103C00001188BFF34F8FBFF36F8FFEE7206B00F07B
:103C1000EFFA2046BDE8104000F0EABA2046BDE8C1
:103C2000104000F0E5BA10BD4FF44061104810F0AC
:103C3000070F06D0C01D20F007000D49411AC1F53D
:103C400040610C4A1060002353600144083921F0A0
:103C50000701183A11604B600B600B1A436001605A
:103C60004068906050604FF0004050617047000025
:103C7000BC050020B0000020074E4FF08054074DD7
:103C8000FFF792FF30680128FAD92C60BFF34F8FFD
:103C9000BFF36F8FF4E70000CC04002004ED00E0D8
:103CA0002DE9F0478146099E089D0A9C9A46521EBE
:103CB000206B00EB820020F00708002700290CD0C1
:103CC000002023180A5C83F834200A5C12B1401CDF
:103CD0001028F6D384F8437001E084F83470072D7F
:103CE00000D30625E5626564A764201D00F01FFA75
:103CF00004F1180000F01BFA2461C5F10700A0616F
:103D00006462E76484F8507052464946404600F0C9
:103D100003F92060002E00D03460BDE8F087000079
:103D200070B500240F4D04EB840005EB800000F01B
:103D3000F3F9641C072CF6D30B4800F0EDF90B489F
:103D400000F0EAF90A4800F0E7F90A4800F0E4F95F
:103D5000094800F0E1F909480349416314318163DE
:103D600070BD0000CC040020580500206C05002028
:103D70008005002094050020A80500205C0000209C
:103D800010B4144900E011460A688242FBD34B6824
:103D900003EB010C844503D1406818444860084691
:103DA0000C68D0F804C00CEB0003A3420CD10A4B02
:103DB0001B689A4206D05268624442600A681268E0
:103DC000026002E0036000E00260814200D008600F
:103DD00010BC7047B0000020980000200749486BD5
:103DE0000068002805D0486BC068C06840688862D9
:103DF00070474FF0FF308862704700005C00002081
:103E00000A484068B0F1FF3F07D0502080F3118886
:103E1000BFF34F8FBFF36F8FFEE7502080F3118801
:103E2000BFF34F8FBFF36F8FFEE70000B800002095
:103E30002DE9F0410546002600F08AFA344F386833
:103E400008B9FFF7F1FE7869054251D19DB10835F7
:103E500015F0070F0FD005F00700C0F1080005446A
:103E600015F0070F07D0502080F31188BFF34F8F54
:103E7000BFF36F8FFEE7002D3AD07868854237D8C0
:103E800024490846046801E0214604466068A842C7
:103E900002D220680028F7D13868844228D0086808
:103EA00000F10806206808606068411B10290FD9DE
:103EB000601910F0070F07D0502080F31188BFF36E
:103EC0004F8FBFF36F8FFEE741606560FFF758FFCC
:103ED00061687868401A7860BA68904200D2B86029
:103EE00078690843606000202060F868401CF86032
:103EF00000F090FB16F0070F07D0502080F31188D8
:103F0000BFF34F8FBFF36F8FFEE73046BDE8F08100
:103F100098000020B0000020001F4FF08073036065
:103F2000001F21F001010160001F034901601438E6
:103F30000260203870470000013E00082DE9F05F64
:103F4000DFF8E09004214C464846FCF71DFF364F51
:103F50004FF4006138702046FCF716FF3349344CAB
:103F6000DFF8D0B008706178334E01434FF4005A47
:103F70004FF001084FF0000502D0012810D023E0D7
:103F800084F801803078401C3070C00705D00122D1
:103F900051465846FCF705FF16E02848057013E027
:103FA000657000F07BF8FCF701FF216A401AB0F55C
:103FB000967F09D93078C00706D1FCF7F7FE20625A
:103FC00051465846FCF7E5FE38782178014302D087
:103FD000012813D013E0FFF75BFB3078C1071848C6
:103FE00002D00178491C017084F80080017804290E
:103FF00000D905700078FFF70BF800E02570E07835
:1040000001280DD1FCF7D2FE616A884208D92A4600
:10401000E5704846BDE8F05F4FF48061FCF7C1BE33
:10402000BDE8F09F000C0140370000203800002060
:1040300000000020001001403C0000203D00002056
:104040003900002000B54FF4FA72104600F005F870
:1040500010465DF804EB00F00FB8002801DA0020EC
:1040600004E04FF4FA71884200DD08464FF08041C9
:104070004863002088637047002801DA002004E0CC
:104080004FF4FA71884200DD0846034908600020B9
:10409000091D086070470000340800404FF080415F
:1040A00000204863886302490860091D0860704762
:1040B0003408004000B5C820FFF7CFFF4FF4FA7076
:1040C0005DF804EBFFF7D8BF00B54FF4FA70FFF7C7
:1040D000C4FFC8205DF804EBFFF7CEBF0169436859
:1040E00082689A60836842685A604A68824201D155
:1040F00082684A60002202610868401E0860086801
:1041000070470000034B036003F1540008608020F7
:10411000106070473002002000F1080141604FF04C
:10412000FF328260C160016100210160704700219F
:104130000161704710B4D1F800C0BCF1FF3F02D05C
:1041400000F1080202E0026904E01A4653681C68A4
:104150006445FAD953684B6099608A605160086180
:104160000168491C016010BC704742684A6093684E
:104170008B6093685960916008610168491C016017
:1041800070470000502080F31188BFF34F8FBFF3BA
:104190006F8F0A494868401C486001280CD10848C4
:1041A000006810F0FF0F07D0502080F31188BFF394
:1041B0004F8FBFF36F8FFEE770470000B8000020FD
:1041C00004ED00E009494868002806D0401E486018
:1041D000002801D180F311887047502080F31188A6
:1041E000BFF34F8FBFF36F8FFEE70000B8000020D2
:1041F00070B500282AD0A0F10804154D60686969DF
:10420000084207D1502080F31188BFF34F8FBFF3CE
:104210006F8FFEE722683AB1502080F31188BFF318
:104220004F8FBFF36F8FFEE78843606000F090F818
:1042300060686968084468602046FFF7A1FD286946
:10424000401C2861BDE8704000F0E4B970BD00007A
:10425000980000204FF0E0200021016181610549B4
:104260004FF47A720968B1FBF2F1491E41610721EE
:10427000016170475800002010B502460020002A56
:1042800012D00F48006B38B1502080F31188BFF373
:104290004F8FBFF36F8FFEE700F05AF800211046F2
:1042A000FFF702FC00F0B6F9002807D105494FF0EE
:1042B00080500860BFF34F8FBFF36F8F10BD0000B9
:1042C0005C00002004ED00E010B586B000240594E9
:1042D000049403AA04A905A8FFF714FF05980499FC
:1042E000019102900023009415A11748039A00F051
:1042F000F7F81649C86208B1012000E00020012843
:104300000AD0B0F1FF3F19D1502080F31188BFF3DC
:104310004F8FBFF36F8FFEE7502080F31188BFF3FC
:104320004F8FBFF36F8F4FF0FF30886201204861DD
:10433000CC6006B0BDE8104000F042B806B010BD39
:1043400049444C4500000000793C00085C00002016
:104350000248016B491C0163704700005C000020AB
:10436000154A106B002802D00120D0617047002050
:10437000D0611069B0FA80F0C0F11F000F4900EB66
:10438000800051F8203073B101EB8000416849682A
:10439000416000F10803994201D1496841604068D9
:1043A000C06810607047502080F31188BFF34F8FB2
:1043B000BFF36F8FFEE700005C000020CC040020FC
:1043C00010B582B0284908780190FF20087008785D
:1043D00000909DF800009DF8002000F0F000904251
:1043E00007D0502080F31188BFF34F8FBFF36F8F3A
:1043F000FEE79DF800001D4C00F0500020700720E3
:10440000A0609DF8000010F0800F0BD0A068401E47
:10441000A0609DF80000400000909DF8000010F0A2
:10442000800FF3D1A068032807D0502080F31188B3
:10443000BFF34F8FBFF36F8FFEE74FF44070A06064
:10444000019808700A48016841F470010160016830
:1044500041F070410160FFF7FDFE00206060FBF756
:10446000A5FE02B0002010BD00E400E0B80000206E
:1044700020ED00E02DE9F04F85B081460F9F0E9EA4
:104480008A4690469B464FEA8800FFF7D1FC0546D6
:1044900028000AD05420FFF7CBFC04460CB125635A
:1044A00004E02846FFF7A4FE00E000249CB10020B1
:1044B00084F8510003905B464246514601970096AE
:1044C00002944846FFF7ECFB2046FFF729FB05B0B6
:1044D0000120BDE8F08F05B04FF0FF30BDE8F08F50
:1044E00070B586B00646DDF828C00C9C0B980028F5
:1044F00016D0ECB1542504952063022084F85100B5
:10450000002005AD0390CDF800C00195029430461F
:10451000FFF7C6FB2046FFF703FB059806B070BD0A
:10452000502080F31188BFF34F8FBFF36F8FFEE7EA
:10453000502080F31188BFF34F8FBFF36F8FFEE7DA
:104540002DE9F0470026314F386B002805D0B869B7
:10455000401CB8613046BDE8F087F868451CFD6036
:104560009DB9786B006838B1502080F31188BFF393
:104570004F8FBFF36F8FFEE7786BB96B7963B863CA
:10458000386A401C3862FFF729FCB86ADFF880807F
:1045900085420FD34FF00109786B006838B1786B12
:1045A000C068C4686068854212D2B86202E04FF009
:1045B000FF30B8623868C06A00EB800058F820000D
:1045C000012800D90126F8690028C3D00126C1E7D7
:1045D000201DFFF783FDA06A18B104F11800FFF752
:1045E0007DFDE16A3A6909FA01F01043386101EB97
:1045F000810008EB8000211DFFF7B7FDE06A3968F4
:10460000C96A8842C8D30126C6E700005C000020C2
:10461000CC0400202DE9F0470024A0462D4D286B46
:10462000002807D0FFF7AEFD286B401E2863286BDB
:1046300040B149E0502080F31188BFF34F8FBFF3A2
:104640006F8FFEE7A86800283ED0234F3868012608
:1046500000B3A7F1B409F868C46804F11800FFF7C3
:104660003DFD201DFFF73AFDE06A2A6906FA00F1D8
:104670001143296100EB800009EB8000211DFFF749
:1046800074FDE06A2968C96A884200D3EE6138681F
:104690000028E0D10CB1FFF7A1FBAC6944B1FFF7F2
:1046A0004FFF00B1EE61641E002CF8D10020A8611C
:1046B000E86948B14FF0010808494FF080500860A0
:1046C000BFF34F8FBFF36F8FFFF77CFD4046BDE810
:1046D000F08700005C0000208005002004ED00E071
:1046E000604700084D360008FEFF00000000000093
:1046F000800000000000000000000000704700087B
:10470000592E0008FFFF000000000000800000009C
:10471000000000000000000080470008712E000823
:10472000FEFF00000000000080000000000000000C
:1047300000000000010202030405060708090A0B35
:104740000C0D0E0F10100000000000000000010210
:10475000030406070809000000000102030400002A
:1047600057726974654750494F5F50574D000000BC
:1047700052656164416E616C6F6753656E736F0063
:10478000526561644779726F53656E736F72000092
:10479000B047000800000020C40000002801000805
:1047A00074480008C40000205C17000044010008A1
:1047B00000000000000000000000000000000000F9
:1047C00000000000000000000000000000000000E9
:1047D00000000000000000000000000000000000D9
:1047E00000000000000000000000000000000000C9
:1047F00000000000000000000000000001000000B8
:10480000100000000000000000127A00000000000C
:104810000000000000000000000000000000000098
:104820000000000000000000000000000000000088
:104830000000000000000000000000000000000078
:104840000000000000000000000000000000000068
:104850000000000000000000000000000000000058
:10486000000000000000000000000000AAAAAAAAA0
:044870000000000044
:04000005080000ED02
:00000001FF
